:020000040800F2
:1000000050080020410200083D0200087307000864
:100010003D0200083D0200083D020008000000000B
:100020000000000000000000000000003D02000889
:100030003D020008000000003D0200083D020008EB
:100040003D0200083D0200083D0200083D02000894
:100050003D0200083D0200083D0200083D02000884
:100060003D0200083D0200083D0200083D02000874
:100070003D0200083D0200083D0200083D02000864
:100080003D0200083D0200083D0200083D02000854
:100090003D0200083D0200083D0200083D02000844
:1000A0003D0200083D0200083D0200083D02000834
:1000B0003D0200083D0200083D0200083D02000824
:1000C0003D0200083D0200083D0200083D02000814
:1000D0003D0200083D0200083D0200083D02000804
:1000E0003D0200083D0200083D020008000000003B
:1000F0000000000000000000000000000000000000
:1001000000000000000000005FF808F110B50C4B83
:1001100019784A1CD2B2194448709C1800210E2A42
:100120001A70617002D80A2800D038B919700420FA
:1001300004490022BDE8104000F012BB10BD00BF12
:100140003004002031040020384B82B01A6842F09D
:1001500001021A605968364A0A405A601A6822F049
:10016000847222F480321A601A6822F480221A60A3
:100170005A6822F4FE025A604FF41F029A6000226D
:10018000009201921A6842F480321A601A6802F4EE
:1001900000320192009A01320092019A1AB9009A33
:1001A000B2F5A06FF2D11A6812F4003218BF012222
:1001B0000192019A012A05D01E4B4FF000629A600D
:1001C00002B070471C4A116841F0100111601168BB
:1001D00021F003011160116841F0020111605A68B9
:1001E0005A605A685A605A6842F480625A605A6883
:1001F00022F47C125A605A6842F4E8125A601A6873
:1002000042F080721A601968084A8901FBD551686A
:1002100021F003015160516841F0020151605A68B8
:1002200002F00C02082AFAD1C6E700BF0010024013
:100230000000FFF800ED00E000200240FEE70000B3
:1002400008B50C4A0C4B0D498B4204D252F8041FDE
:1002500043F8041BF7E70A480A494FF000028842B6
:10026000B8BF40F8042BFADBFFF76EFFBDE808408B
:1002700000F09EB8D20700080000002030040020E3
:10028000300400204C040020CA78F0B5D40648BFE2
:100290008C780D8802F00F0348BF234315F0FF0F41
:1002A0001DD0016800240126A64006EA0507B742D2
:1002B00011D14FEA840E0F2606FA0EF621EA060146
:1002C000282A03FA0EF641EA060101D1476102E04D
:1002D000482A08BF07610134082CE4D10160FF2DD2
:1002E0001FD94168002404F108070126BE4006EA30
:1002F0000507B74211D14FEA840E0F2606FA0EF613
:1003000021EA0601282A03FA0EF641EA060101D184
:10031000476102E0482A08BF07610134082CE2D196
:100320004160F0BD8368194214BF0120002070476E
:10033000416170470AB10161704741617047000037
:1003400010B54FF4804000F0E9F90120014600F0BB
:10035000EFF90520012100F0F7F948F201030C49FB
:1003600003240B800B482823CB708C70FFF78CFF85
:100370000820012100F0E8F907494FF470730B8061
:100380008C7010230548BDE81040CB70FFF77CBF90
:10039000420400200008014046040020000C0140F7
:1003A00002484FF47071FFF7C3BF00BF000C01405B
:1003B00070B5FFF7C9FEFFF7C3FF01211648FFF72D
:1003C000B1FF4FF4004186B205461348FFF7AAFF7C
:1003D0000446FFF7E5FF32B223B29A4208D00F4835
:1003E000C0212A46FFF7A6FF0C484FF4407109E0F0
:1003F000002EE2D0094880212A46FFF79BFF0748DC
:100400004FF480712246FFF795FF294622460448A3
:1004100000F076F9D1E700BF00080140000C014070
:1004200088070008034610B5013911F8012F1C1A7E
:1004300012B103F8012BF8E7204610BD092B70B567
:1004400002F1FF3205460E461C4601D8034606E07F
:100450000A23B4FBF3F3FFF7F1FF291808E0002AA1
:10046000A3EB0500194603DD03F8016B013AF6E73B
:100470000A22B4FBF2F302FB134330330B7001305A
:1004800070BDF8B583EAE374A4EBE374092C164657
:1004900005460F4602F1FF320AD9002B4FF00A033E
:1004A000B4FBF3F3B8BF5B42FFF7EBFF2A1815E08C
:1004B000002BB8BFB21E0138511E091A2944002969
:1004C00002DD00F8017FF7E7002B22EAE27005EB7E
:1004D0000002BFBF2D232B54013201300A21B4FB8F
:1004E000F1F301FB1343303313700130F8BDF7B55E
:1004F000089C05465FEA141E0F461E4602F1FF32B5
:1005000001D1034605E0CDF800E0FFF7F0FF291820
:1005100008E0002AA3EB0500194603DD03F8017B80
:10052000013AF6E704F00F03092B01D8303303E05A
:100530000EB1373300E0573301300B7003B0F0BD1C
:100540002DE9F3410E46044608B100210170002553
:10055000117831B9B5424FF0000366D223702846B6
:1005600069E0B542F6D2252902D00132217004E0BB
:100570005178252904D12170023201350134E7E791
:10058000302916BF501C901C20210022077880467D
:10059000A7F1300EBEF1090F00F1010007D802EB00
:1005A000820207EB4202303A02F0FF02EEE7A8189F
:1005B000B04284BF721BD2B2692F18D00BD8632F00
:1005C0002AD0642F13D0582F33D11F1D1B6820460B
:1005D000009301231DE0752F0FD0782F14D0732FB7
:1005E00027D1204619681F1DFFF71CFF0AE01F1DB9
:1005F00020461B68FFF745FF04E01F1D20461B68CF
:10060000FFF71CFF3B460BE020461F1D1B680093B5
:100610000023FFF76CFFF5E71A680120227004330E
:1006200008F101020444054492E704F8013C681E05
:1006300001E04FF0FF3002B0BDE8F08110B50C468C
:10064000134664212246BDE81040FFF779BF000041
:10065000084B10B51B6804469A68914202D0DB68CB
:10066000994204D1E0B2FFF751FD204610BD4FF092
:10067000FF3010BD0000002070B505460E46044650
:10068000601B14F8013B2BB118463146FFF7E0FF21
:10069000431CF5D170BD0000F0B5A3B006468E46F0
:1006A0006C466F460F4B03F1200C254618685968BD
:1006B000083303C563452C46F7D118687146286096
:1006C00009A8FFF7BBFF632806DD074B38461B6808
:1006D000D968FFF7D1FFFEE709A83146FFF7CCFF45
:1006E00023B0F0BDB20700080000002003460A4610
:1006F0000249096888681946FFF7CEBF000000204C
:100700000FB407B504A951F8040B0191FFF7EEFFF0
:1007100003B05DF804EB04B070470000034A53686F
:1007200023F4404318435060704700BF001002405C
:10073000044B5A6909B1104301E022EA00005861F4
:10074000704700BF00100240044B9A6909B1104382
:1007500001E022EA00009861704700BF00100240EB
:10076000ABBE01E000207047002A00D010600120DD
:10077000704706980188034A914202D104300690DE
:100780007047FEE7ABBE0000427574746F6E5F3158
:100790002028504130293A2025643B20427574744A
:1007A0006F6E5F32202850413135293A2025640A86
:1007B0000D00737464696F2E633A20696E6372650D
:1007C000617365204D41585F535452494E475F5302
:0607D000495A450A0D0024
:1007D60008000020000000000000000000000000EB
:1007E6000100000000000000000000000000000002
:1007F60000000000000000000000000000000000F3
:1008060000000000000000000000000000000000E2
:1008160000000000000000000000000000000000D2
:1008260000000000000000000000000000000000C2
:0400000508000000EF
:00000001FF
