:020000040800F2
:100000002804002001020008FD0100081F06000866
:10001000FD010008FD010008FD01000800000000CE
:10002000000000000000000000000000FD010008CA
:10003000FD01000800000000FD0100081D0300088C
:10004000FD010008FD010008FD010008FD01000898
:10005000FD010008FD01000831030008FD01000852
:10006000FD010008FD010008FD010008FD01000878
:10007000FD010008FD010008FD010008FD01000868
:10008000FD010008FD010008FD010008FD01000858
:10009000FD010008FD010008FD010008FD01000848
:1000A000FD010008FD010008FD010008FD01000838
:1000B000FD010008FD010008FD010008FD01000828
:1000C000FD010008FD010008FD010008FD01000818
:1000D000FD010008FD010008FD010008FD01000808
:1000E00051030008FD010008FD01000800000000A8
:1000F0000000000000000000000000000000000000
:1001000000000000000000005FF808F1374B82B0EB
:100110001A6842F001021A605968354A0A405A606A
:100120001A6822F0847222F480321A601A6822F46B
:1001300080221A605A6822F4FE025A604FF41F02AD
:100140009A600022009201921A6842F480321A608A
:100150001A6802F400320192009A01320092019A68
:100160001AB9009AB2F5A06FF2D11A6812F40032EF
:1001700018BF01220192019A012A30D11D4A11684B
:1001800041F010011160116821F003011160116844
:1001900041F0020111605A685A605A685A605A6800
:1001A00042F480625A605A6822F47C125A605A689B
:1001B00042F4E8125A601A6842F080721A601A68B3
:1001C0009201FCD55A6822F003025A605A6842F044
:1001D00002025A605A6802F00C02082AFAD14FF063
:1001E0000062054B9A6002B0704700BF00100240E9
:1001F0000000FFF80020024000ED00E0FEE70000F4
:1002000008B50E4B0E48DA1C121AC11E22F003026A
:10021000994288BF00220B4900F036FA0A480B4980
:100220004FF000028842B8BF40F8042BFADBFFF71A
:100230006DFFBDE8084000F04BB900BF140000207E
:100240000000002074070008140000202400002093
:10025000F0B5CB780E88DA0648BF8A7803F00F0530
:1002600048BF15430A78C2B1002101274FF00F0C97
:10027000026807FA01F434EA060E0AD1282B29D1C4
:1002800044618C000CFA04FE22EA0E0205FA04F422
:10029000224301310829ECD10260FF2E19D9002137
:1002A0004FF0010C426801F108040CFA04F434EA3E
:1002B00006070AD1282B11D144610F278C00A740D3
:1002C00022EA070205FA04F4224301310829EAD19F
:1002D0004260F0BD482BD4D10461D2E7482B08BF5F
:1002E0000461EAE7416170470AB101617047416109
:1002F000704710B50F2401F0030301F0FC0101F178
:10030000804101F580318A689B009C4022EA04020A
:100310008A608A6898401043886010BD034B1A6851
:1003200012B11A68013A1A60704700BF1400002029
:1003300008B5012000F056F910B10122034B1A71E3
:100340000120BDE8084000F05BB900BF14000020A8
:1003500008B54FF4004000F045F910B10122044BFC
:100360005A714FF40040BDE8084000F049B900BFA1
:100370001400002082B00190019A034B1A601A68A1
:10038000002AFCD102B070471400002010B54FF4D1
:10039000804000F0CFF80121084600F0D5F8012197
:1003A000052000F0DDF848F201030D4C0D48E38014
:1003B00042F60303A11D2381FFF74AFF0121082014
:1003C00000F0CEF84FF47073638141F20303A38110
:1003D00004F10A010448BDE81040FFF739BF00BF2F
:1003E0001400002000080140000C01404FF470711F
:1003F0000148FFF777BF00BF000C01400022024B0D
:100400001A715A71704700BF140000204FF47A72BD
:100410002A4BF0211B682DE9F043B3FBF2F34FF0B8
:10042000E022013B5361264B002583F8231007236C
:1004300001244FF028094FF400664FF40047DFF81D
:10044000848089B0956101211361042000F088F84F
:1004500069464046ADF800408DF80390FFF7F8FE7E
:1004600029462846FFF745FF04A80494ADF8146018
:100470008DF8164000F080F8134B02A8029300F0AC
:10048000D9F8404601A9ADF804708DF80790FFF740
:10049000DFFE0F212846FFF72CFF06A80697ADF8D0
:1004A0001C608DF81E4000F067F8084B03A803930A
:1004B00000F0C0F809B0BDE8F08300BF10000020D4
:1004C00000ED00E000080140060F0F01280F0F01AA
:1004D00008B5FFF71BFEFFF799FFFFF757FF134C17
:1004E000134D23796279934212D0FFF77FFFC02129
:1004F00022792846FFF7F8FE4FF4407162792846CA
:10050000FFF7F2FEFFF77AFFC820FFF733FFE8E7B7
:10051000002BF9D0FFF76AFF802122792846FFF7E8
:10052000E3FE4FF480716279E9E700BF1400002018
:10053000000C0140034A536823F4404303435360D3
:10054000704700BF00100240044B5A6911B10243CA
:100550005A61704722EA0002FAE700BF0010024029
:10056000044B9A6911B102439A61704722EA000272
:10057000FAE700BF00100240027930B583790568C0
:1005800002F18042E94302F5823223B3144B1C6826
:100590000C401C605C68214059601168294311605F
:1005A0009968026821EA02019960D96821EA02018A
:1005B000D9604179102906D1996811439960D968A9
:1005C0000A43DA6030BD01F1804303F582331968D4
:1005D0000A431A60F6E713680B401360F2E700BFA6
:1005E000000401400246054B19685869104003D0C9
:1005F000114214BF01200020704700BF00040140D9
:10060000014B5861704700BF00040140ABBE01E0E0
:1006100000207047002A00D0106001207047069823
:1006200001884BF6AB62914202D1043006907047CC
:10063000FEE7000070B50125017801F01F039D4021
:10064000C3784C09BBB10E4B4678DA68D243C2F38B
:100650000222C2F104039E4083780F2020FA02F2A6
:1006600013403343074A1B01DBB2114481F80033C6
:1006700042F8245070BD034B203443F82450F9E76E
:1006800000ED00E000E100E0844641EA000313F0E1
:10069000030349D1403A23D30B6803604B6843609E
:1006A0008B688360CB68C3600B6903614B694361EE
:1006B0008B698361CB69C3610B6A03624B6A4362D6
:1006C0008B6A8362CB6AC3620B6B03634B6B4363BE
:1006D0008B6B8363CB6BC36340304031403ADBD2DA
:1006E00030320BD30B6803604B6843608B688360C8
:1006F000CB68C36010301031103AF3D20C3205D3FE
:1007000051F8043B40F8043B043AF9D2043208D0D3
:10071000D2071CBF11F8013B00F8013B01D30B8845
:1007200003806046704700BF082A13D38B07B1D0FF
:1007300010F00303AED0C3F10403D21ADB071CBFD1
:1007400011F8013B00F8013BA4D331F8023B20F83B
:10075000023B9FE7043AD9D3013A11F8013B00F874
:10076000013BF9D20B7803704B7843708B78837020
:040770006046704728
:10077400000000000000000001020304060708094D
:0407840000A24A0481
:0400000508000000EF
:00000001FF
