:020000040800F2
:100000005004002081020008E1020008670B00088C
:10001000E1020008E1020008E1020008000000001F
:10002000000000000000000000000000E1020008E5
:10003000E102000800000000E1020008E1020008FF
:10004000E1020008E1020008E1020008E102000804
:10005000E1020008E1020008E1020008E1020008F4
:10006000E1020008E1020008E1020008E1020008E4
:10007000E1020008E1020008E1020008E1020008D4
:10008000E1020008E1020008E1020008E1020008C4
:10009000E1020008E1020008E1020008E1020008B4
:1000A000E1020008E1020008E1020008E1020008A4
:1000B000E1020008E1020008E1020008E102000894
:1000C000E1020008E1020008E1020008E102000884
:1000D000E1020008E1020008E1020008E102000874
:1000E000E1020008E1020008E1020008000000004F
:1000F0000000000000000000000000000000000000
:1001000000000000000000005FF808F180B500AFBB
:10011000154B1B68144A43F001031360124B5A68D5
:100120001149124B13404B600F4B1B680E4A23F0D2
:10013000847323F4803313600B4B1B680A4A23F447
:1001400080231360084B5B68074A23F4FE03536067
:10015000054B4FF41F029A6000F00CF8044B4FF06F
:1001600000629A6000BF80BD001002400000FFF8EE
:1001700000ED00E080B500AF00F002F800BF80BDE8
:1001800080B483B000AF00237B6000233B603A4B18
:100190001B68394A43F480331360374B1B6803F400
:1001A00000333B607B6801337B603B68002B03D1ED
:1001B0007B68B3F5A06FF0D12F4B1B6803F40033BD
:1001C000002B02D001233B6001E000233B603B6831
:1001D000012B4BD1294B1B68284A43F010031360B5
:1001E000264B1B68254A23F003031360234B1B682F
:1001F000224A43F0020313601F4B1F4A5B6853609F
:100200001D4B1D4A5B6853601B4B5B681A4A43F4E5
:1002100080635360184B5B68174A23F47C13536068
:10022000154B5B68144A43F4E8135360124B1B6888
:10023000114A43F08073136000BF0F4B1B6803F03B
:100240000073002BF9D00C4B5B680B4A23F00303BF
:100250005360094B5B68084A43F00203536000BFD8
:10026000054B5B6803F00C03082BF9D100BF0C377A
:10027000BD4680BC704700BF001002400020024015
:1002800080B582B000AF114B7B60114B3B6007E043
:100290007A68131D7B603B68191D396012681A600B
:1002A0003B680C4A9342F3D30B480C494FF00002D1
:1002B0008842B8BF40F8042BFADBFFF727FF00F0B5
:1002C00013F900BF0837BD4680BD00BFA80D000868
:1002D0000000002000000020000000204C00002052
:1002E00080B400AF00BFFDE780B489B000AF786094
:1002F00039600023FB6100233B610023BB610023C5
:10030000FB6000237B610023BB603B68DB7803F06C
:100310000F03FB613B68DB7803F01003002B05D073
:100320003B689B781A46FB691343FB613B681B885B
:10033000DBB2002B44D07B681B687B610023BB6170
:1003400038E00122BB6902FA03F3FB603B681B88BB
:100350001A46FB6813403B613A69FB689A4226D112
:10036000BB699B00FB600F22FB6802FA03F3BB60D2
:10037000BB68DB437A6913407B61FA69FB6802FA68
:1003800003F37A6913437B613B68DB78282B05D143
:100390000122BB699A407B685A6108E03B68DB78C0
:1003A000482B04D10122BB699A407B681A61BB6962
:1003B0000133BB61BB69072BC3D97B687A691A60BB
:1003C0003B681B88FF2B46D97B685B687B610023F9
:1003D000BB613AE0BB690833012202FA03F3FB6018
:1003E0003B681B881A46FB6813403B613A69FB680F
:1003F0009A4227D1BB699B00FB600F22FB6802FA7F
:1004000003F3BB60BB68DB437A6913407B61FA6925
:10041000FB6802FA03F37A6913437B613B68DB787C
:10042000282B05D1BB69083301229A407B685A61A9
:100430003B68DB78482B05D1BB69083301229A4021
:100440007B681A61BB690133BB61BB69072BC1D9EA
:100450007B687A695A6000BF2437BD4680BC70470C
:1004600080B483B000AF78600B467B807A887B686D
:100470005A6100BF0C37BD4680BC704780B483B062
:1004800000AF78600B467B8013467B707B78002B37
:1004900003D07A887B681A6102E07A887B685A61A7
:1004A00000BF0C37BD4680BC704780B483B000AF3E
:1004B00000237B6002E07B6801337B607B68B3F5DF
:1004C000A04FF8DB00BF00BF0C37BD4680BC7047B3
:1004D00080B500AF4FF470710248FFF7C1FF00BF55
:1004E00080BD00BF000C014080B586B000AFFFF7B3
:1004F0000DFE4FF4804000F01DF901214FF4007013
:1005000000F052F901214FF4806000F04DF9012113
:100510004FF4004000F048F90121012000F026F9D5
:100520000121052000F040F9794B48F20F021A80B2
:10053000774B0022DA7076497648FFF7D5FE012125
:10054000082000F031F9724B4FF470721A80704B32
:100550001022DA706E4B03229A706D496E48FFF7D5
:10056000C3FE6E4B00221A606C4B01221A716B4B5A
:1005700001225A71694B4FF460229A60674B002246
:10058000DA60664B04221A740523012201216448B3
:1005900000F017FA052302220221614800F011FA47
:1005A0000523032203215E4800F00BFA05230422F1
:1005B00010215B4800F005FA5849594800F012F93B
:1005C000584800F0DBFA584B584A1A60584A564BC4
:1005D0005A60554B00229A60534B0422DA60524B0A
:1005E00000221A61504B80225A614F4B4FF48072A7
:1005F0009A614D4B4FF48062DA614B4B20221A62B4
:10060000494B4FF400525A62474B00229A624649C6
:10061000444800F06FFB0121424800F0A9FB012192
:100620003F4800F04CF901213D4800F02DF93C48CD
:1006300000F060F900BF3A4800F06BF90346002B68
:10064000F9D1374800F07CF900BF354800F087F950
:100650000346002BF9D10121314800F015F90121A1
:100660002F4800F093F9324B1B889BB27B61304BD3
:100670005B889BB23B612E4B9B889BB2FB602C4BF3
:10068000DB889BB2BB602A4B5B889BB240F2DC529A
:1006900093428CBF01230023DBB27B60244B9B88F9
:1006A0009BB240F2DC5293428CBF01230023DBB2A9
:1006B0003B60FFF70DFF7A683B689A420FD07B687A
:1006C000DBB21A46C0211448FFF7D8FE3B68DBB204
:1006D0001A464FF440711048FFF7D0FE14E07B68D3
:1006E000002B11D03B68002B0ED07B68DBB21A4682
:1006F00080210948FFF7C2FE3B68DBB21A464FF47F
:1007000080710548FFF7BAFEFFF7CFFEABE700BFE9
:100710000000002000080140000C014004000020FF
:100720000024014008000240180000204C24014031
:100730004400002080B485B000AF78600023FB60E7
:10074000094B5B68FB60FB6823F44043FB60FA687D
:100750007B681343FB60044AFB68536000BF143797
:10076000BD4680BC704700BF0010024080B483B01B
:1007700000AF78600B46FB70FB78002B06D0094B6E
:100780005A6908497B6813434B6106E0054B5A6977
:100790007B68DB43034913404B6100BF0C37BD4608
:1007A00080BC70470010024080B483B000AF786016
:1007B0000B46FB70FB78002B06D0094B9A69084961
:1007C0007B6813438B6106E0054B9A697B68DB43CA
:1007D000034913408B6100BF0C37BD4680BC704796
:1007E0000010024080B485B000AF7860396000230B
:1007F000FB600023FB727B685B68FB60FB6823F493
:10080000702323F48073FB603B681A683B681B7994
:100810001B021343FA681343FB607B68FA685A6053
:100820007B689B68FB60FA68164B1340FB603B6873
:10083000DA683B689B681A433B685B795B0013434B
:10084000FA681343FB607B68FA689A607B68DB6A2E
:10085000FB60FB6823F47003FB603B681B7C013B7F
:10086000DAB2FB7A1343FB72FB7A1B05FA68134377
:10087000FB607B68FA68DA6200BF1437BD4680BC53
:10088000704700BFFDF7F1FF80B483B000AF786020
:100890000B46FB70FB78002B06D07B689B6843F00F
:1008A00001027B689A6005E07B689B6823F0010287
:1008B0007B689A6000BF0C37BD4680BC704780B42F
:1008C00083B000AF78600B46FB70FB78002B06D03E
:1008D0007B689B6843F480727B689A6005E07B6864
:1008E0009B6823F480727B689A6000BF0C37BD461A
:1008F00080BC704780B483B000AF78607B689B6831
:1009000043F008027B689A6000BF0C37BD4680BC8C
:10091000704780B485B000AF78600023FB737B68BC
:100920009B6803F00803002B02D00123FB7301E056
:100930000023FB73FB7B18461437BD4680BC704711
:1009400080B483B000AF78607B689B6843F004029A
:100950007B689A6000BF0C37BD4680BC704780B48E
:1009600085B000AF78600023FB737B689B6803F061
:100970000403002B02D00123FB7301E00023FB736F
:10098000FB7B18461437BD4680BC704780B483B0EB
:1009900000AF78600B46FB70FB78002B06D07B68BD
:1009A0009B6843F4A0027B689A6005E07B689B68C3
:1009B00023F4A0027B689A6000BF0C37BD4680BC60
:1009C000704780B485B000AF7860084611461A467B
:1009D0000346FB700B46BB7013467B700023FB6025
:1009E0000023BB60FB78092B23D97B68DB68FB60A5
:1009F000FB78A3F10A0213465B001344072202FAB4
:100A000003F3BB60BB68DB43FA681340FB60797893
:100A1000FB78A3F10A0213465B00134401FA03F3C7
:100A2000BB60FA68BB681343FB607B68FA68DA60F6
:100A30001EE07B681B69FB60FA7813465B00134479
:100A4000072202FA03F3BB60BB68DB43FA6813407A
:100A5000FB607978FA7813465B00134401FA03F3DC
:100A6000BB60FA68BB681343FB607B68FA681A6175
:100A7000BB78062B21D87B685B6BFB60BB785A1E6A
:100A800013469B0013441F2202FA03F3BB60BB68AA
:100A9000DB43FA681340FB60F978BB785A1E1346B3
:100AA0009B00134401FA03F3BB60FA68BB6813436D
:100AB000FB607B68FA685A6347E0BB780C2B21D84F
:100AC0007B681B6BFB60BB78DA1F13469B001344EB
:100AD0001F2202FA03F3BB60BB68DB43FA681340D2
:100AE000FB60F978BB78DA1F13469B00134401FAC8
:100AF00003F3BB60FA68BB681343FB607B68FA686A
:100B00001A6322E07B68DB6AFB60BB78A3F10D020D
:100B100013469B0013441F2202FA03F3BB60BB6819
:100B2000DB43FA681340FB60F978BB78A3F10D0250
:100B300013469B00134401FA03F3BB60FA68BB68D9
:100B40001343FB607B68FA68DA6200BF1437BD4666
:100B500080BC7047ABBE01E000207047002A00D087
:100B6000106001207047069801884BF6AB629142F5
:100B700002D1043006907047FEE7000080B483B0D5
:100B800000AF78607B681A684FF6FE7313407A688E
:100B900013607B6800221A607B6800225A607B68C1
:100BA00000229A607B680022DA607B68434A9342A5
:100BB00006D1434B5B68424A43F00F03536077E032
:100BC0007B68404A934206D13D4B5B683C4A43F008
:100BD000F00353606CE07B683B4A934206D1384B8C
:100BE0005B68374A43F47063536061E07B68374A5F
:100BF000934206D1324B5B68314A43F470435360F1
:100C000056E07B68324A934206D12D4B5B682C4AF2
:100C100043F4702353604BE07B682E4A934206D125
:100C2000274B5B68264A43F47003536040E07B68BF
:100C3000294A934206D1224B5B68214A43F07063F4
:100C4000536035E07B68254A934206D1244B5B68AC
:100C5000234A43F00F0353602AE07B68214A934202
:100C600006D11F4B5B681E4A43F0F00353601FE040
:100C70007B681D4A934206D1194B5B68184A43F4BE
:100C80007063536014E07B68184A934206D1144B9A
:100C90005B68134A43F47043536009E07B68144A6D
:100CA000934205D10E4B5B680D4A43F470235360A9
:100CB00000BF0C37BD4680BC704700BF0800024033
:100CC000000002401C00024030000240440002408C
:100CD000580002406C0002408000024008040240BC
:100CE000000402401C04024030040240440402405C
:100CF0005804024080B485B000AF786039600023AA
:100D0000FB607B681B68FB60FB6823F4FF4323F0F8
:100D10007003FB603B689A683B681B6A1A433B6838
:100D20001B691A433B685B691A433B689B691A431A
:100D30003B68DB691A433B685B6A1A433B689B6A02
:100D40001343FA681343FB607B68FA681A603B68D8
:100D5000DA687B685A603B681A687B689A603B680F
:100D60005A687B68DA6000BF1437BD4680BC7047A4
:100D700080B483B000AF78600B46FB70FB78002B2B
:100D800006D07B681B6843F001027B681A6006E0AE
:100D90007B681A684FF6FE7313407A68136000BFD1
:080DA0000C37BD4680BC704712
:0400000508000000EF
:00000001FF
